:020000040800F2
:10000000B026002029020008111C0008F51900087C
:100010000D1C000821040008651E000800000000F7
:10002000000000000000000000000000191C000893
:100030002504000800000000151C00081D1C000815
:10004000430200084302000843020008430200087C
:10005000430200084302000843020008430200086C
:10006000430200084302000843020008430200085C
:10007000430200084302000843020008430200084C
:10008000430200084302000843020008430200083C
:10009000430200084302000843020008430200082C
:1000A000430200084302000843020008430200081C
:1000B0004302000843020008351C00084302000800
:1000C00043020008430200084302000843020008FC
:1000D0004302000843020008611E000843020008B2
:1000E00043020008430200084302000843020008DC
:1000F00043020008430200084302000843020008CC
:1001000043020008430200084302000843020008BB
:1001100043020008430200084302000843020008AB
:10012000430200084302000843020008430200089B
:10013000430200084302000843020008430200088B
:10014000430200084302000843020008430200087B
:10015000430200084302000843020008430200086B
:10016000430200084302000843020008430200085B
:100170004302000843020008430200080000000098
:10018000430200084302000800F002F800F03CF8C7
:100190000AA090E8000C82448344AAF10107DA45E2
:1001A00001D100F031F8AFF2090EBAE80F0013F0F8
:1001B000010F18BFFB1A43F001031847DC200000B1
:1001C000FC200000103A24BF78C878C1FAD8520742
:1001D00024BF30C830C144BF04680C6070470000C1
:1001E0000023002400250026103A28BF78C1FBD840
:1001F000520728BF30C148BF0B6070471FB502F0DF
:1002000032F81FBD10B510BD00F0D0F81146FFF751
:10021000F5FF01F029FE00F0EEF803B4FFF7F2FF5E
:1002200003BC00F0F5F80000094880470948004782
:10023000FEE7FEE7FEE7FEE7FEE7FEE7FEE7FEE796
:10024000FEE7FEE704480549054A064B70470000F3
:10025000211C000889010008B0200020B0260020E1
:10026000B0220020B022002053EA020C00F0698086
:100270002DE9F04B4FF00006002B1FBFB3FA83F5BA
:1002800003FA05F424FA05F65E4012BF1643B2FAEB
:1002900082F502FA05F4C5F120051EBF22FA05FC1D
:1002A00044EA0C04203556EA044C4FEA144418BFC3
:1002B000641C4FF000084FF00009904271EB030CF2
:1002C00039D3002919BFB1FA81F701FA07F6B0FA5C
:1002D00080F700FA07F6C7F120071EBF20FA07FCD7
:1002E00046EA0C062037B6FBF4FCA7EB0507103FE7
:1002F00007F01F0BCBF120062CFA06F60CFA0BFBCD
:1003000044BFB3460026202FA4BF5E464FF0000B2B
:100310005BEA060C08BF4FF0010B19EB0B0948EB29
:100320000608ABFB027C06FB02CC0BFB03CCC01B1C
:1003300071EB0C01C1E70B46024641464846BDE859
:10034000F08B13B5084318BF4FF0FF300146AFF3F1
:100350000080BDE81C4070474FF0000200B5134616
:1003600094469646203922BFA0E80C50A0E80C50D5
:10037000B1F12001BFF4F7AF090728BFA0E80C5086
:1003800048BF0CC05DF804EB890028BF40F8042B7F
:1003900008BF704748BF20F8022B11F0804F18BFEC
:1003A00000F8012B7047704770477047754600F0A2
:1003B0002BF8AE4605006946534620F007008546F7
:1003C00018B020B5FFF73EFFBDE820404FF0000613
:1003D0004FF000074FF000084FF0000BAC46ACE8C0
:1003E000C009ACE8C009ACE8C009ACE8C00921F01C
:1003F00007018D46704710B50446AFF300802046D4
:10040000BDE81040FFF709BF00487047100000200A
:1004100001491820ABBEFEE726000200704700002D
:10042000FEE7000070470000EFF3108072B600BFD7
:10043000FEE700002DE9F04F82B000F13E4241F6A8
:10044000004502F1FF77C4F2020508224FEAB72601
:10045000A84208BF0722072E38BF4FEAB7224FF045
:10046000010A002400274FF00008009208E000BFB6
:10047000023708F10108202F04F1040400F0B480D1
:100480000E680AFA08F916EA090FF1D0D1F804A0AB
:100490000AF0030BABF10106012E17D80322866880
:1004A00002FA07FECA6826EA0E06BA4032438260A4
:1004B0004268CAF3001522EA090205FA08F54FEA74
:1004C000480C6FEA0E062A4342600BE00322BA4052
:1004D000D643BBF1030FBC4604D1BC464FF0030B1F
:1004E00022E000BFC2688D68324005FA0CF52A434D
:1004F000BBF1020FC26017D16FF0030202EA58028B
:10050000024404F01C030F25D2F820E005FA03FA98
:100510000D692EEA0A0E05FA03F343EA0E0313628D
:10052000D1F804A00AF0030B02680BFA0CF3324076
:100530001A431AF4403F4FF0010A026098D000229B
:1005400043F644030192C4F202031A6843F6004ED4
:1005500042F480421A601A68C4F2010E02F480422A
:100560000192019A28F003024FF6084C7244CFF62C
:10057000FF7C52F80C3004F00C060F25B540AB435D
:10058000009D05FA06F6334342F80C30DEF80820E9
:100590004B6842EA090643F60C4CDD0258BF22EADA
:1005A0000906CEF80860C4F2010CDCF800209D02B8
:1005B00042EA090658BF22EA0906CCF80060DEF8D4
:1005C00004209D0342EA090658BF22EA0906CEF834
:1005D0000460DEF80020DB0342EA090658BF22EA85
:1005E0000906CEF8006043E702B0BDE8F08F0000D6
:1005F0000069084018BF012070470000002A08BFAA
:10060000090481617047000042F2AC00C2F20000B0
:100610000068704740F2000042F2AC01C2F20000F4
:10062000C2F2000100780A681044086070470000B8
:1006300080B543F60040C4F20200016841F4007145
:100640000160016841F480610160016841F48071DA
:100650000160032000F084F80F2000F005F800F09E
:1006600027F8002080BD000070B540F20006C2F2FD
:10067000000640F208013278C2F200014FF47A73AA
:100680000968B3FBF2F20446B1FBF2F1084600F050
:1006900041FB0F2C4FF0010508D838B94FF0FF305F
:1006A00021460022002500F02FF87460284670BD16
:1006B00082B0002043F640010190C4F202014A6872
:1006C00042F480424A604A6802F480420192019AF0
:1006D0000090086840F080500860086800F0805082
:1006E0000090009802B07047002848BF704700F0A3
:1006F0001F01012202FA01F14EF200124009CEF26E
:10070000000242F82010704710B54EF60C5CCEF295
:10071000000CDCF80030C3F3022E8EF00704042C2A
:1007200028BF0424BEF103034FF0FF3E0EFA04F489
:1007300038BF0023A14399400EFA03F39A431143B3
:1007400000F00F02043A624409010C3200F16043E8
:10075000B0F1FF3FC8BF03F56442117010BD000047
:100760004EF60C51CEF200010A684FF6FF031A4014
:1007700060F30A2242F0806040F0FD70086070472C
:100780002DE9F041002800F08B8043F60808C4F200
:1007900002080446D8F8F8030D4600F00700884226
:1007A00007D288F8F853D8F8F80300F00700A842F9
:1007B00076D12068810717D5410705D5D8F80010F4
:1007C00041F4E051C8F80010010705D5D8F8001031
:1007D00041F46041C8F80010D8F80010A26821F078
:1007E000F0011143C8F80010C0073FD1D8F8F80352
:1007F00000F00700A84207D988F8F853D8F8F803A2
:1008000000F00700A8424BD12068410707D5D8F86F
:100810000010E26821F4E0511143C8F8001000070D
:1008200008D5D8F80000216920F4604040EAC100F2
:10083000C8F8000000F07CF8D8F8001042F28022DE
:10084000C1F30311C0F60002515C40F2080220FA25
:1008500001F140F20400C2F200000068C2F200029E
:100860001160FFF701FF0020BDE8F0816068811E84
:10087000022907D258F8081C89015CBF0120BDE895
:10088000F08111E0012807D158F8081C89035CBFEA
:100890000120BDE8F08107E058F8081C890703D45F
:1008A0000120BDE8F08100BFD8F8001021F003015D
:1008B0000843C8F80000FFF7A7FE064641F2883754
:1008C000D8F80000616800F00C00B0EB810F8DD00B
:1008D000FFF79AFE801BB842F2D90320BDE8F081F1
:1008E00040F2080043F60801C2F20000C4F202011F
:1008F0000068096842F29022C1F38221C0F600022A
:10090000515CC8407047000040F2080043F60801FF
:10091000C2F20000C4F202010068096842F29022AB
:10092000C1F34231C0F60002515CC840704700007C
:1009300010B543F60404C4F20204606800F00C0031
:1009400008280BD0042819BF42F20040C0F2F4007E
:1009500047F64000C0F27D1010BD00BF206821683E
:100960002368490247F64001C0F27D1100F03F02C2
:10097000C3F388105CBF42F20041C0F2F401A1FB56
:1009800000010023FFF770FC21680222C1F301413E
:1009900002EB4101B0FBF1F010BD00002DE9F04188
:1009A00082B000286AD00446007843F60006C007EB
:1009B000C4F202060BD0B06800F00C00042840F02E
:1009C000A1803068800302D56068002856D0207866
:1009D00080071AD5B06810F00C0F09D0B06800F08D
:1009E0000C00082840F0A8807068400200F1A48044
:1009F0003068800702D5E06801283FD1306821695E
:100A000020F0F80040EAC10030602078000739D4B7
:100A1000207840074ED4A5695DB3B06800F00C00A3
:100A2000082840F0BD80012D28D07068E16900F4ED
:100A300080028A4222D1216A00F03F028A421DD1FF
:100A400047F6C071626A0140B1EB821F16D1A26AFB
:100A50000023CFF6FF7303EBC23200F440316FF393
:100A60000F0291420AD1E16A00F07060B0EB016FB1
:100A700004D1002002B0BDE8F08100BF012002B027
:100A8000BDE8F0816069002840F20000C4F2472010
:100A900076D00121C0F8801EFFF7B6FD054600BFE5
:100AA000706F8007B4D4FFF7AFFD401B0228F7D961
:100AB000DDE000BF306C10F080580AD100200190BA
:100AC000306C40F080503064306C00F08050019009
:100AD000019847F20007C4F200073868C00541D406
:100AE000386840F480703860FFF78EFD054600BF1F
:100AF0003868C00536D4FFF787FD401B0228F7D9B8
:100B0000B5E000BFB06800F00C00082803D17068A1
:100B100040023FF556AF6068B0F5803F07D0B0F5B2
:100B2000A02F40F08D80306840F480203060306825
:100B300040F4803030608DE0E068002852D0002022
:100B4000C4F2472001210160FFF75EFD054600BFAA
:100B5000306880073FF552AFFFF756FD401B022873
:100B6000F6D984E0A068012805D005284ED1306F61
:100B700040F004003067306F40F0010030674FE014
:100B80000021C0F8801EFFF73FFD0546706F80070B
:100B90007FF53EAFFFF738FD401B0228F6D966E02F
:100BA0000027C4F2472700203866FFF72DFD022DED
:100BB00005460BD1306880015ED5FFF725FD401B4F
:100BC00002284FF00300F5D954E700BF30688001D8
:100BD0007FF54FAFFFF718FD401B02284FF00300D1
:100BE000F4D947E70020C4F2472000210160FFF755
:100BF0000BFD0546306880077FF507AFFFF704FD62
:100C0000401B02284FF00300F4D933E7316F00286E
:100C100021F001013167316F21F0040131674DD0BE
:100C2000FFF7F2FC054641F2883700BF306F8007BE
:100C300056D4FFF7E9FC401BB842F7D917E000BFD4
:100C40003168002821F480313160316821F480213D
:100C500031604FD0FFF7D8FC054600BF30688003F5
:100C60003FF5B5AEFFF7D0FC401B6428F6D9032052
:100C700002B0BDE8F08100BF04F11C052FCD084390
:100C80000021CFF6FF7140EA821001EBC3316FF310
:100C90000F0140EA05600843706001203866FFF7E5
:100CA000B3FC0446306880013FF5E3AEFFF7ACFCCF
:100CB000001B02284FF00300F4D9DBE6FFF7A4FC89
:100CC000054641F2883700BF306F800708D5FFF72F
:100CD0009BFC401BB8424FF00300F5D9CAE600BFA9
:100CE000B8F1000F7FF497AE306C20F08050306484
:100CF00091E600BFFFF788FC054600BF306880031F
:100D00007FF565AEFFF780FC401B64284FF00300C1
:100D1000F4D9AFE6411E0020B0EB116F1CBF0120DB
:100D200070474EF21002CEF2000251604EF623518F
:100D3000CEF20001F0230B70072190601160704724
:100D400070470000704700007047000010B590F831
:100D50003C20012A4FF0020251D080F83D20026869
:100D6000D2F804E0D2F808C00C682EF070032343D8
:100D700041F2FF74C4F20004A24253600EDC40F260
:100D8000FF73C4F200039A4216DCB2F1804F2BD0FD
:100D900040F20043C4F2000324E000BF40F2FF33FE
:100DA000C4F201039A4213DC41F60003C4F20003CB
:100DB0009A4219D0002313E040F60003C4F2000366
:100DC0009A4211D040F60043C4F200030AE000BF8B
:100DD00044F20003C4F201039A4205D040F20043FA
:100DE000C4F201039A4204D149682CF080031943EC
:100DF00091600121002280F83D1080F83C201046CF
:100E000010BD0000002804BF0120704770B50446E3
:100E100090F83D00002855D1002084F83C0041F6B0
:100E2000810041F60D11C0F60000C0F6000141F648
:100E3000111241F2991CC0F60002C0F6000CC4F871
:100E40008000C4F8841041F2697041F2951141F6B6
:100E5000151341F2353541F26576C4F88820C4F89F
:100E600090C0C0F60000C0F6000140F6455204F103
:100E7000A00CC0F60003C0F60005C0F60006C0F6E0
:100E800000028CE80700A16C41F29D1EC4F88C3072
:100E9000C4E9265640F6495340F64156C0F6000EC6
:100EA000C0F60003C0F60006C4F894E0C4F8AC3005
:100EB000C4F8B06021B940F60171C0F60001A16428
:100EC00020468847022084F83D002068211D00F05C
:100ED000B7FE012084F8460084F83E0084F83F0005
:100EE00084F8400084F8410084F8420084F843000C
:100EF00084F8440084F8450084F83D00002070BD6B
:100F000080B582B0006840F60001C4F2000188425A
:100F10001CBF02B080BD0020019043F64000C4F227
:100F200002000168002241F0040101600068002114
:100F300000F00400019001981E20FFF7E5FB1E2041
:100F400002B0BDE88040FFF7CFBB000090F83D1035
:100F500001291CBF01207047022180F83D10006864
:100F600041F2FF72C168C4F20002904241F00101F7
:100F7000C1600DDC40F2FF71C4F20001884215DC53
:100F8000B0F1804F2AD040F20041C4F2000123E0CA
:100F900040F2FF31C4F20101884213DC41F6000146
:100FA000C4F20001884219D0002113E040F600018C
:100FB000C4F20001884211D040F60041C4F20001A1
:100FC0000AE000BF44F20001C4F20101884205D0EA
:100FD00040F20041C4F20101884206D1816801F06B
:100FE0000701062904BF00207047016841F0010194
:100FF000016000207047000080B590F83C20012A75
:101000004FF0020200F0C28080F83D20D0F800C00E
:101010004FF67772DCF8083023EA0202CCF8082099
:101020000B684F2B28DC1F2B44DD202B45D0302BA9
:1010300043D0402B40F0AC80D1F804E0C968DCF824
:101040002030DCF8202022F00102CCF82020DCF84F
:10105000182022F0F00242EA011123F00A0242EACB
:101060000E02CCF81810CCF82020DCF8081041F063
:10107000470121F0300180E06F2B27DDB3F5005FE1
:1010800048D0B3F5805F7AD0702B40F08180D1E9F1
:1010900001E3C968DCF8082043EA0E0322F47F422A
:1010A00043EA01211143CCF80810DCF8081041F0A4
:1010B000770162E00BB1102B6AD1DCF8081021F047
:1010C0007001194341F0070157E000BF502B35D0A4
:1010D000602B5DD1D1F804E0C968DCF8203023F042
:1010E0001003CCF82030DCF81830DCF8202023F492
:1010F000704322F0A00243EA013142EA0E12CCF81A
:101100001810CCF82020DCF8081041F0670121F01D
:10111000100132E0D1E901E3C968DCF8082043EAB4
:101120000E0322F47F4243EA01211143CCF8081058
:10113000DCF8081041F480411FE000BFD1F804E062
:10114000C968DCF82030DCF8202022F00102CCF85D
:101150002020DCF8182022F0F00242EA011123F0EE
:101160000A0242EA0E02CCF81810CCF82020DCF873
:10117000081041F0570121F02001CCF8081000229E
:10118000012180F83D10002180F83C10104680BD00
:101190000122F5E77047000070470000704700002B
:1011A00010B5044600680169890744BFC1685FEA59
:1011B000817139D40169490744BFC1685FEA41714F
:1011C0003ED40169090744BFC1685FEA017143D495
:1011D0000169C90644BFC1685FEAC16148D40169B9
:1011E000C9071CBFC1685FEAC1714DD10169090619
:1011F00044BFC1685FEA016150D40169490644BF38
:10120000C1685FEA416153D40169890646BFC1687C
:101210005FEA816110BD6FF020010161D4F8A81070
:101220002046BDE8104008476FF00201016101212E
:1012300021778069800745D004F1900048E000BF25
:101240006FF00401016102212177806910F4407F71
:1012500046D004F1900049E06FF0080101610421DB
:101260002177C069800749D004F190004CE000BFAD
:101270006FF01001016108212177C06910F4407FEF
:101280004AD004F190004DE06FF001010161D4F803
:101290008010204688472068A8E700BF6FF08001D3
:1012A0000161D4F8B010204688472068A5E700BF48
:1012B0006FF040010161D4F888102046884720680B
:1012C000A2E700BFD4F898102046884704F19C009C
:1012D0000168204688472068002121776AE700BF1F
:1012E000D4F898102046884704F19C0001682046F5
:1012F000884720680021217763E700BFD4F8981061
:101300002046884704F19C000168204688472068F1
:10131000002121775CE700BFD4F898102046884769
:1013200004F19C000168204688472068002121774D
:1013300055E7000070470000002804BF01207047F7
:10134000F0B581B0044690F83D000D46002855D117
:10135000002084F83C0041F6810041F60D11C0F6F2
:101360000000C0F6000141F6111241F2991CC0F6CE
:101370000002C0F6000CC4F88000C4F8841041F2EA
:10138000697041F2951141F6151341F2353641F27B
:101390006577C4F88820C4F890C0C0F60000C0F695
:1013A000000140F6455204F1A00CC0F60003C0F65F
:1013B0000006C0F60007C0F600028CE80700A16E28
:1013C00041F29D1EC4F88C30C4E9266740F64953AB
:1013D00040F64157C0F6000EC0F60003C0F6000705
:1013E000C4F894E0C4F8AC30C4F8B07021B941F24C
:1013F0003D41C0F60001A16620468847022084F8DE
:101400003D002068211D00F01BFC2068016821F0D0
:1014100008010160016829430160012084F8460049
:1014200084F83E0084F83F0084F8420084F84300CA
:1014300084F83D00002001B0F0BD000070470000BE
:101440002DE9F04190F83C30012B04BF0220BDE8AB
:10145000F0814FEAB202032A00F2FC80DFE802F0DA
:10146000023E7EBE036840F200471A6A43F480657C
:1014700022F001021A621C6A1A46D3F804E052F8FC
:1014800018CF8E6824F00204C4F20107BD4244EA7A
:10149000060405D1CE6824F00C0426F0040634437B
:1014A0000E68BD4207D1D1E905572EF4407E45EACA
:1014B0000E0545EA070E2CF073073743C3F804E026
:1014C0009F614F6809695F631C629F6947F0080765
:1014D0009F619F6927F004079F61B1E0036840F2B4
:1014E00000481A6A43F4806522F010021A621C6AEE
:1014F0001A46D3F804E052F818CF8F6824F020047D
:10150000C4F20108454544EA071407D1CF686FF0DB
:10151000400624F0C00406EA071634430F68454528
:1015200007D1D1E905562EF4406E4EEA850545EA0D
:10153000860E2CF4E64646EA0727C3F804E09F61CE
:101540004F6809699F631C629F6947F400679F6148
:101550009F6927F480679F6171E000BF036840F2D4
:1015600000481A6A43F4806522F480721A621C6A89
:101570001A46D3F804E052F81CCF8F6824F40074A4
:10158000C4F20108454544EA072408D1CF6840F277
:10159000FF463F0224F4406427EA060634430F68FE
:1015A000454507D1D1E905562EF4405E4EEA0515B2
:1015B00045EA061E2CF073063743C3F804E0DF61EA
:1015C0004F680969DF631C62DF6947F00807DF6164
:1015D000DF6927F00407DF6132E000BF036840F2F3
:1015E00000451A6A43F4806722F480521A621A4650
:1015F000D3F820C05C6852F81CEFD1F800808E68E8
:10160000C4F20105AF4204D14D6924F4804444EA98
:1016100085142CF4005747EA06372EF4E64646EACE
:1016200008265C60DE614E6809691E641F62DF691E
:1016300047F40067DF61DF6927F48067DF61090233
:101640001368194311600021002280F83C200846ED
:10165000BDE8F0810121002280F83C200846BDE869
:10166000F0810000002804BF0120704770B50446D7
:1016700090F83D00002855D1002084F83C0041F648
:10168000810041F60D11C0F60000C0F6000141F6E0
:10169000111241F2991CC0F60002C0F6000CC4F809
:1016A0008000C4F8841041F2697041F2951141F64E
:1016B000151341F2353541F26576C4F88820C4F837
:1016C00090C0C0F60000C0F6000140F6455204F19B
:1016D000A00CC0F60003C0F60005C0F60006C0F678
:1016E00000028CE80700216E41F29D1EC4F88C3088
:1016F000C4E9265640F6495340F64156C0F6000E5E
:10170000C0F60003C0F60006C4F894E0C4F8AC309C
:10171000C4F8B06021B941F26171C0F600012166E0
:1017200020468847022084F83D002068211D00F0F3
:1017300087FA012084F8460084F83E0084F83F00D0
:1017400084F8400084F8410084F8420084F84300A3
:1017500084F8440084F8450084F83D00002070BD02
:1017600070470000704700007047000041B1082931
:1017700010D0042914BF00F1410200F13F020BE038
:1017800090F83E20012A1CBF01207047022280F8F9
:101790003E2013E000F140021278012A1CBF012014
:1017A00070470222082907D0042914BF80F841207D
:1017B00080F83F2002E000BF80F84020006801F080
:1017C0001F010122036A02FA01F123EA0102026207
:1017D000026A114341F2FF72C4F2000290420162B8
:1017E0000CDC40F2FF71C4F20001884214DCB0F15D
:1017F000804F37D040F2004116E000BF40F2FF3189
:10180000C4F20101884215DC41F60001C4F2000176
:10181000884227D0002115E040F60001C4F2000103
:1018200088421FD040F60041C4F20001884219D01E
:101830001FE000BF44F20001C4F20101884211D050
:1018400040F20041C4F20101884212D1416C40F2E1
:10185000004340F48062C4F2010341F400419A4223
:10186000416406D1816801F00701062904BF002008
:101870007047016841F001010160002070470000DD
:1018800070B50020C4F202000121FEF7B1FE40F263
:10189000740C40F6440540F2700EC2F2000C41F2A6
:1018A0001404C2F20005C2F2000E41F2E473614674
:1018B000C2F200042E46BEF80220C2F20003012844
:1018C00008BF194604BF26462C4641F6B475C2F23D
:1018D000000531F812102D688EF80000696336F8A3
:1018E00012100128A96334F8120008BF6346E863A8
:1018F00033F812002864501C81B240F27122891A18
:1019000018BF0146AEF8021070BD0000704700001D
:101910007047000070470000002804BF0120704796
:1019200010B5044690F83D0028B9002084F83C002A
:10193000204600F021F8242084F83D002068C1688A
:1019400021F40051C160204600F018FA20680169B6
:1019500021F490410161416921F02A014161C1688E
:1019600041F40051C16000202021206484F83D1022
:1019700084F83E1010BD000080B586B0016844F2C6
:101980000040C4F20000814202D006B080BD00BF1A
:10199000002143F630020191C4F20202136900F5FE
:1019A000DE3043F400331361136903F40033019311
:1019B000019B0191136843F001031360126802F068
:1019C00001020192019A0C2201920222CDE9022128
:1019D000032104910721059101A9FEF72BFD262083
:1019E00000210022FEF790FE2620FEF77DFE06B0C5
:1019F00080BD0000FEE700002DE9F04186B0002622
:101A000043F63000CDE904660096C4F20200016896
:101A1000002441F0010101600168C4F2020401F0F8
:101A200001010091009900960168002241F008012F
:101A300001600068022100F0080000900098204634
:101A40004FF00208FEF7DAFD01AD012720462946D6
:101A5000CDE901760396FEF7EDFC20462946CDE957
:101A60000187CDE90366FEF7E5FC06B0BDE8F0812D
:101A7000B0B594B040F6000541F6B470C4F200056C
:101A80000021C2F200000F2240F2E7330E91CDE9AF
:101A90000C110991CDE90711CDE90511CDE903112B
:101AA000CDE90111C0E90052C0E902130161816171
:101AB000FFF7A8F9002818BFFEF7B6FC4FF48050D6
:101AC0000B9041F6B470C2F200000BA9FFF794FA34
:101AD000002818BFFEF7A8FC41F6B470C2F200005F
:101AE000FFF7C0FD002818BFFEF79EFC41F6B4705A
:101AF000C2F200000821FFF71FFC002818BFFEF704
:101B000093FC41F6B4700024C2F2000008A9CDE9AC
:101B10000844FFF71BF9002818BFFEF785FC60207A
:101B2000CDE9010441F6B470C2F2000001A900221F
:101B300003940594FFF784FC002818BFFEF774FC9B
:101B400041F6B470C2F2000001A90422FFF778FC4C
:101B5000002818BFFEF768FC41F6B470C2F200001E
:101B600001A90822FFF76CFC002818BFFEF75CFCF7
:101B700041F6B474C2F2000401A920460C22FFF71A
:101B80005FFC002818BFFEF74FFC2068A84201D078
:101B900014B0B0BD002043F630010F90C4F2020132
:101BA0000A6842F008020A60096801F008010F9112
:101BB0000F994FF470410F910221CDE91010CDE93A
:101BC000120105F501300FA9FEF734FC14B0B0BDC9
:101BD00080B542F2680044F20041C2F20000C4F253
:101BE000000100234FF00C0C4FF4E13280E80E00AE
:101BF000C0E90333C0E905C3C361FFF78DFE0028C8
:101C000008BF80BDBDE88040FEF70EBCFEE70000C7
:101C1000FEE700007047000070470000FEF7FABCC6
:101C20004EF68850CEF20000016841F47001016068
:101C30007047000041F6B470C2F20000FFF7B0BA7E
:101C400010B540F6FF3E0368C4F2000E40F2004CAF
:101C50007045C4F2010C27DCB0F1804F31D040F266
:101C60000042C4F2000290422BD040F60002C4F2BF
:101C70000002904225D041F6FF72C4F20002904269
:101C800029DC70453CDCB0F1804F5FD040F200426F
:101C9000C4F20002904259D040F60002C4F20002A1
:101CA000904253D056E000BF40F60042C4F200021A
:101CB000904206D0604504D00022C4F20102904256
:101CC000D9D14A6823F07003134341F6FF72C4F27E
:101CD00000029042D5DD43F6FF72C4F20102904249
:101CE00022DC42F20002C4F2000290422ED0002216
:101CF000C4F20102904229D0604527D02AE000BFFB
:101D000040F60042C4F2000290421FD041F60002A9
:101D1000C4F20002904219D041F60042C4F200021F
:101D2000904213D016E000BF44F20002C4F2010258
:101D300090420BD044F60002C4F20102904205D05A
:101D400044F20042C4F20102904203D1CA6823F473
:101D50004073134323F080024B69D1F800E08C6894
:101D60001A430260C46240F48062C0F828E0624511
:101D700004BF096901630121416110BD10B504462A
:101D80000068D4E902C22369016921F4405111437A
:101D90000161626943EA0C01E3691143C2681943B6
:101DA00049F20C639A431143C1604169A26921F46D
:101DB000407141F20043114340F48062C4F20103D8
:101DC0009A42416102D1FEF79FFD01E0FEF788FDD6
:101DD000E16963681922B1F5004FA0FB02011FD130
:101DE0005A00DB0FFEF740FA48F21F51C5F2EB1123
:101DF000A0FB01235A096FF0630302FB03003223A7
:101E000003EBC000A0FB01014FF4F87000EA1110D1
:101E100000EB0210C1F3421108442168886010BD34
:101E20009A009B0FFEF720FA48F21F51C5F2EB1102
:101E3000A0FB01235A096FF0630302FB0300322366
:101E400003EB0010A0FB0101F02000EA511000EBB1
:101E50000210C1F3431108442168886010BD0000DE
:101E600070470000FEE7000092B0FEF7E1FB06AC11
:101E7000201D2C21FEF770FA002543F64000059541
:101E8000CDE90355CDE901550095C4F20200016882
:101E900041F080510160006800F08050009000988F
:101EA00047F200000095C4F20000016841F480414F
:101EB0000160006800F480400090009802200690C5
:101EC0000120099010200A9020460C95FEF766FD2F
:101ED00020B1EFF3108072B6FEE700BF0F20CDE90E
:101EE000010501A80021CDE903550595FEF748FC41
:101EF00020B1EFF3108072B6FEE700BFFFF77CFD64
:101F0000FFF7B6FDFFF764FE41F6B474C2F20004B9
:101F10002046FFF71BF8204600210025FFF726FC8E
:101F200020460421FFF722FC20460821FFF71EFC73
:101F300020460C21FFF71AFC41F2E472062040F221
:101F4000ED16C2F2000240F2EF1C40F2F11440F232
:101F5000F3130AE0002708351030B5F57A7FA6F1B3
:101F6000080622F8117000F0C180A5F5FA7111F58C
:101F7000FA7F01D800211DE07C2D19D8171837F8F9
:101F8000081C083127F8061CC5F5FA7722F8171047
:101F9000B5F5F97F05F1010714D87C2D14D211187D
:101FA00031F8061C02EB4507083179805F1B0DE014
:101FB000B2F8F8102F4622F81710B5F5F97F05F1A1
:101FC0000107EAD9002101E0B2F8F81022F8171051
:101FD000A5F5F97111F5FA7F05F1020702D8002184
:101FE0000CE000BF7B2D07D202EB45077988083152
:101FF000B980C5F5F97701E0B2F8F81022F81710AA
:10200000A5F2F11111F5FA7F05F1030702D80021BD
:102010000CE000BF7A2D07D202EB45018988671BCF
:102020000831115202E000BFB2F8F81022F8171080
:10203000A5F5F87111F5FA7F05F1040702D8002122
:102040000CE000BF792D07D2115A02EB4507083189
:102050003981C5F5F87701E0B2F8F81022F81710C9
:10206000A5F2EF1111F5FA7F05F1050702D800215D
:102070000CE000BF782D07D202EB45073989083103
:102080007981ACEB050701E0B2F8F81022F81710DF
:10209000A5F5F77111F5FA7F05F1060702D80021C1
:1020A0000CE000BF772D07D202EB45077989083194
:1020B000B981C5F5F77701E0B2F8F81022F81710EA
:1020C000A5F2ED1111F5FA7F45F007017FF642AF59
:1020D000762D07D202EB45018F890837CF81314633
:1020E00039E700BFB2F8F87035E700BF4FF6954A00
:1020F000CFF6FF7A41F2140540F6440340F274062D
:10210000A2F10A000021C2F200050AF17D04C2F228
:102110000003C2F2000640F26D2B40F2663940F235
:10212000E92C00BF40F26A324FF07D0E914288BF29
:10213000D64630F80A8F0EEB010725F8178040F2DB
:10214000ED22FA27914288BF27460F4423F81780D3
:1021500040F27717B1F51C7F88BF6FF41C770F44EE
:1021600026F8178040F269327D27914288BF574692
:102170000F44428805EB47077A80FA27B1F53B7F89
:1021800088BF27460F4403EB47077A800F09262FA5
:1021900040F2771788BF6FF41C770F4406EB4707B0
:1021A0007A807D22B1F55A7F88BF52460A448788DB
:1021B00005EB420297808A08BA2A4FF0FA0288BFDC
:1021C00022460A4403EB4202978040F26E2291427B
:1021D00040F2771288BF6FF41C720A4406EB420289
:1021E0009780CA086C2A4FF07D0288BF52460A4485
:1021F000C78805EB4202D78040F2EA2291424FF0B5
:10220000FA0288BF22460A4403EB4202D78040F21A
:102210007712594588BF6FF41C720A4406EB4202DC
:10222000D7807D22494588BF52460A44078905EB7D
:1022300042021781FA22614588BF22460A4403EB15
:102240004202178140F27712B1F51B7F88BF6FF40D
:102250001C720A44053106EB4202B1F57A7F178100
:102260007FF460AFFEE7F1EE100A4FF6FF71C0F2A7
:10227000C03120EA010040F04070E1EE100A7047E2
:102280000000000000000000010203040607080926
:102290000000000001020304B82200080000002032
:1022A00010000000C4010008C8220008100000202F
:1022B000A0260000E001000801000000100000005E
:0822C0000024F40000000000FE
:040000050800018965
:00000001FF
