:020000040800F2
:10000000980500209D01000835210008991F00086F
:1000100031210008F10200089D24000800000000C2
:100020000000000000000000000000003D2100086A
:10003000F5020008000000003921000841210008F5
:10004000B7010008B7010008B7010008B7010008B0
:10005000B7010008B7010008B7010008B7010008A0
:10006000B7010008B7010008B7010008B701000890
:10007000B7010008B7010008B7010008B701000880
:10008000B7010008B7010008B7010008B701000870
:10009000B7010008B7010008B7010008B701000860
:1000A000B7010008B7010008B7010008B701000850
:1000B000B7010008B701000859210008B70100087E
:1000C000B7010008B7010008B7010008B701000830
:1000D000B7010008B701000891240008B701000823
:1000E000B7010008B7010008B7010008B701000810
:1000F000B7010008B7010008B7010008B701000800
:10010000B7010008B7010008B7010008B7010008EF
:10011000B7010008B7010008B7010008B7010008DF
:10012000B7010008B7010008B7010008B7010008CF
:10013000B7010008B7010008B7010008B7010008BF
:10014000B7010008B7010008B7010008B7010008AF
:10015000B7010008B7010008B7010008B70100089F
:10016000B7010008B7010008B7010008B70100088F
:10017000B7010008B7010008B7010008000000003F
:10018000B7010008B7010008DFF80CD000F09EF8B6
:1001900000480047A525000898050020064880472C
:1001A00006480047FEE7FEE7FEE7FEE7FEE7FEE75C
:1001B000FEE7FEE7FEE7FEE74521000889010008AB
:1001C0002DE9F05F0546002092469B46884606468C
:1001D000814640241BE0284641464746224600F01F
:1001E00064F853465A46C01A914110D31146184636
:1001F000224600F04BF82D1A67EB01084F462246C5
:100200000120002100F042F817EB00094E41201EAA
:10021000A4F10104DFDC484631462A464346BDE8E6
:10022000F09FD2B201E000F8012B491EFBD27047CB
:100230000022F6E710B513460A4604461946FFF7B2
:10024000F0FF204610BD30B504460020034600E014
:100250005B1C934203D2E05CCD5C401BF8D030BD08
:1002600030B50B46014600202022012409E021FA86
:1002700002F59D4205D303FA02F5491B04FA02F583
:100280002844151EA2F10102F1DC30BD202A04DB56
:10029000203A00FA02F1002070479140C2F1200399
:1002A00020FA03F3194390407047202A04DB203AD8
:1002B00021FA02F00021704721FA02F3D040C2F186
:1002C000200291400843194670470000064C074D34
:1002D00006E0E06840F0010394E807009847103416
:1002E000AC42F6D3FFF754FF402A0008602A00080A
:1002F000FEE7000070470000EFF3108072B600BF09
:10030000FEE7000070B5866D044600F049F994F8E8
:10031000351002292ED105462068216C026822F092
:1003200016020260426922F08002426109B9A16CA2
:1003300019B1016821F008010160016821F0010193
:1003400001600068C00708D000F02AF9401B0528AA
:1003500018D820680068C007F6D1E06D3F2101FA87
:1003600000F0B060012084F835000020002184F8FE
:10037000341070BD802060650120002184F83410A5
:1003800070BD00BF20206065032084F83500002187
:1003900084F8341070BD000090F83510022909D19E
:1003A000052180F835100068016821F00101016025
:1003B000002070478021416501207047B0B5044698
:1003C00000F0EEF8054640F20400C2F200000078AA
:1003D000611C18BF044400BF00F0E2F8401BA042BB
:1003E000FAD3B0BD2DE9F04F82B000F13E4241F6A4
:1003F000004502F1FF77C4F2020508224FEAB72652
:10040000A84208BF0722072E38BF4FEAB7224FF095
:10041000010A002400274FF00008009208E000BF06
:10042000023708F10108202F04F1040400F0B48021
:100430000E680AFA08F916EA090FF1D0D1F804A0FB
:100440000AF0030BABF10106012E17D803228668D0
:1004500002FA07FECA6826EA0E06BA4032438260F4
:100460004268CAF3001522EA090205FA08F54FEAC4
:10047000480C6FEA0E062A4342600BE00322BA40A2
:10048000D643BBF1030FBC4604D1BC464FF0030B6F
:1004900022E000BFC2688D68324005FA0CF52A439D
:1004A000BBF1020FC26017D16FF0030202EA5802DB
:1004B000024404F01C030F25D2F820E005FA03FAE9
:1004C0000D692EEA0A0E05FA03F343EA0E031362DE
:1004D000D1F804A00AF0030B02680BFA0CF33240C7
:1004E0001A431AF4403F4FF0010A026098D00022EC
:1004F00043F644030192C4F202031A6843F6004E25
:1005000042F480421A601A68C4F2010E02F480427A
:100510000192019A28F003024FF6084C7244CFF67C
:10052000FF7C52F80C3004F00C060F25B540AB43AD
:10053000009D05FA06F6334342F80C30DEF8082039
:100540004B6842EA090643F60C4CDD0258BF22EA2A
:100550000906CEF80860C4F2010CDCF800209D0208
:1005600042EA090658BF22EA0906CCF80060DEF824
:1005700004209D0342EA090658BF22EA0906CEF884
:100580000460DEF80020DB0342EA090658BF22EAD5
:100590000906CEF8006043E702B0BDE8F08F000026
:1005A00040F29410C2F200000068704740F204006C
:1005B00040F29411C2F20000C2F2000100780A6811
:1005C000104408607047000080B543F60040C4F254
:1005D0000200016841F400710160016841F480612A
:1005E0000160016841F480710160032000F084F82B
:1005F0000F2000F005F800F027F8002080BD000073
:1006000070B540F20406C2F2000640F20C013278E6
:10061000C2F200014FF47A730968B3FBF2F20446A8
:10062000B1FBF2F1084600F041FB0F2C4FF0010541
:1006300008D838B94FF0FF3021460022002500F0DD
:100640002FF87460284670BD82B0002043F6400148
:100650000190C4F202014A6842F480424A604A684A
:1006600002F480420192019A0090086840F08050A4
:100670000860086800F080500090009802B0704751
:10068000002848BF704700F01F01012202FA01F163
:100690004EF200124009CEF2000242F820107047DC
:1006A00010B54EF60C5CCEF2000CDCF80030C3F353
:1006B000022E8EF00704042C28BF0424BEF103038D
:1006C0004FF0FF3E0EFA04F438BF0023A1439940D7
:1006D0000EFA03F39A43114300F00F02043A624406
:1006E00009010C3200F16043B0F1FF3FC8BF03F5D0
:1006F0006442117010BD00004EF60C51CEF20001A4
:100700000A684FF6FF031A4060F30A2242F0806045
:1007100040F0FD70086070472DE9F041002800F0BE
:100720008B8043F60808C4F202080446D8F8F803A0
:100730000D4600F00700884207D288F8F853D8F831
:10074000F80300F00700A84276D12068810717D58A
:10075000410705D5D8F8001041F4E051C8F8001061
:10076000010705D5D8F8001041F46041C8F8001021
:10077000D8F80010A26821F0F0011143C8F8001069
:10078000C0073FD1D8F8F80300F00700A84207D906
:1007900088F8F853D8F8F80300F00700A8424BD1C6
:1007A0002068410707D5D8F80010E26821F4E0512D
:1007B0001143C8F80010000708D5D8F800002169D7
:1007C00020F4604040EAC100C8F8000000F07CF866
:1007D000D8F8001042F62622C1F30311C0F6000239
:1007E000515C40F20C0220FA01F140F20800C2F222
:1007F00000000068C2F200021160FFF701FF002054
:10080000BDE8F0816068811E022907D258F8081CF3
:1008100089015CBF0120BDE8F08111E0012807D10A
:1008200058F8081C89035CBF0120BDE8F08107E08F
:1008300058F8081C890703D40120BDE8F08100BFE7
:10084000D8F8001021F003010843C8F80000FFF7B2
:10085000A7FE064641F28837D8F80000616800F02C
:100860000C00B0EB810F8DD0FFF79AFE801BB842D1
:10087000F2D90320BDE8F08140F20C0043F60801F4
:10088000C2F20000C4F202010068096842F6362292
:10089000C1F38221C0F60002515CC84070470000DD
:1008A00040F20C0043F60801C2F20000C4F202015B
:1008B0000068096842F63622C1F34231C0F60002F0
:1008C000515CC8407047000010B543F60404C4F200
:1008D0000204606800F00C0142F200400829C0F2F6
:1008E000F40007D0042918BF10BD41F20020C0F267
:1008F0007A0010BD216801F03F0221682368490297
:10090000C3F3881106D4A1FB00010023FFF758FCB4
:1009100007E000BF41F20020C0F27A004843B0FB7C
:10092000F2F021680222C1F3014102EB4101B0FB68
:10093000F1F010BD2DE9F04182B000286AD00446E4
:10094000007843F60006C007C4F202060BD0B06878
:1009500000F00C00042840F0A1803068800302D52C
:100960006068002856D0207880071AD5B06810F04B
:100970000C0F09D0B06800F00C00082840F0A880E7
:100980007068400200F1A4803068800702D5E068FA
:1009900001283FD13068216920F0F80040EAC10009
:1009A00030602078000739D4207840074ED4A569FC
:1009B0005DB3B06800F00C00082840F0BD80012D48
:1009C00028D07068E16900F480028A4222D1216A4D
:1009D00000F03F028A421DD147F6C071626A0140B1
:1009E000B1EB821F16D1A26A0023CFF6FF7303EB8F
:1009F000C23200F440316FF30F0291420AD1E16A32
:100A000000F07060B0EB016F04D1002002B0BDE8CF
:100A1000F08100BF012002B0BDE8F08160690028CC
:100A200040F20000C4F2472076D00121C0F8801EB9
:100A3000FFF7B6FD054600BF706F8007B4D4FFF71F
:100A4000AFFD401B0228F7D9DDE000BF306C10F08D
:100A500080580AD100200190306C40F08050306402
:100A6000306C00F080500190019847F20007C4F20A
:100A700000073868C00541D4386840F48070386099
:100A8000FFF78EFD054600BF3868C00536D4FFF776
:100A900087FD401B0228F7D9B5E000BFB06800F021
:100AA0000C00082803D1706840023FF556AF60681B
:100AB000B0F5803F07D0B0F5A02F40F08D803068B2
:100AC00040F480203060306840F4803030608DE049
:100AD000E068002852D00020C4F2472001210160C4
:100AE000FFF75EFD054600BF306880073FF552AF57
:100AF000FFF756FD401B0228F6D984E0A0680128C4
:100B000005D005284ED1306F40F004003067306FBB
:100B100040F0010030674FE00021C0F8801EFFF771
:100B20003FFD0546706F80077FF53EAFFFF738FD4C
:100B3000401B0228F6D966E00027C4F247270020B0
:100B40003866FFF72DFD022D05460BD13068800178
:100B50005ED5FFF725FD401B02284FF00300F5D9B5
:100B600054E700BF306880017FF54FAFFFF718FDF5
:100B7000401B02284FF00300F4D947E70020C4F2DD
:100B8000472000210160FFF70BFD05463068800714
:100B90007FF507AFFFF704FD401B02284FF003006D
:100BA000F4D933E7316F002821F001013167316F4B
:100BB00021F0040131674DD0FFF7F2FC054641F208
:100BC000883700BF306F800756D4FFF7E9FC401B21
:100BD000B842F7D917E000BF3168002821F480310E
:100BE0003160316821F4802131604FD0FFF7D8FCAB
:100BF000054600BF306880033FF5B5AEFFF7D0FC77
:100C0000401B6428F6D9032002B0BDE8F08100BF84
:100C100004F11C052FCD08430021CFF6FF7140EAF7
:100C2000821001EBC3316FF30F0140EA0560084306
:100C3000706001203866FFF7B3FC0446306880011D
:100C40003FF5E3AEFFF7ACFC001B02284FF00300BA
:100C5000F4D9DBE6FFF7A4FC054641F2883700BF74
:100C6000306F800708D5FFF79BFC401BB8424FF060
:100C70000300F5D9CAE600BFB8F1000F7FF497AEC4
:100C8000306C20F08050306491E600BFFFF788FCA4
:100C9000054600BF306880037FF565AEFFF780FC36
:100CA000401B64284FF00300F4D9AFE6411E00203A
:100CB000B0EB116F1CBF012070474EF21002CEF254
:100CC000000251604EF62351CEF20001F0230B706A
:100CD0000721906011607047704700007047000066
:100CE00010B590F83C20012A4FF0020251D080F854
:100CF0003D200268D2F804E0D2F808C00C682EF05B
:100D00007003234341F2FF74C4F20004A242536013
:100D10000EDC40F2FF73C4F200039A4216DCB2F11B
:100D2000804F2BD040F20043C4F2000324E000BF08
:100D300040F2FF33C4F201039A4213DC41F6000390
:100D4000C4F200039A4219D0002313E040F60003D6
:100D5000C4F200039A4211D040F60043C4F20003EB
:100D60000AE000BF44F20003C4F201039A4205D036
:100D700040F20043C4F201039A4204D149682CF0C6
:100D80008003194391600121002280F83D1080F812
:100D90003C20104610BD000090F83D1001291CBFFA
:100DA00001207047022180F83D10006841F2FF7277
:100DB000C168C4F20002904241F00101C1600DDC43
:100DC00040F2FF71C4F20001884215DCB0F1804F9F
:100DD0002AD040F20041C4F2000123E040F2FF318A
:100DE000C4F20101884213DC41F60001C4F20001A3
:100DF000884219D0002113E040F60001C4F200013E
:100E0000884211D040F60041C4F200010AE000BF60
:100E100044F20001C4F20101884205D040F20041D1
:100E2000C4F20101884206D1816801F00701062958
:100E300004BF00207047016841F0010101600020FB
:100E4000704700007047000010B50168044608694B
:100E5000800744BFC8685FEA807039D408694007DA
:100E600044BFC8685FEA40703ED40869000744BFC9
:100E7000C8685FEA007045D40869C00644BFC86806
:100E80005FEAC0604AD40869C0071CBFC8685FEA4F
:100E9000C07051D10869000644BFC8685FEA0060AD
:100EA00052D40869400644BFC8685FEA406053D422
:100EB0000869800646BFC8685FEA806010BD6FF0B1
:100EC000200220460A61BDE81040FFF707BF00BFBF
:100ED0006FF002000861012020778869800743D005
:100EE0002046FFF7AFFF45E06FF0040008610220E5
:100EF0002077886910F4407F40D02046FFF7A2FF9A
:100F000042E000BF6FF00800086104202077C86944
:100F100080073DD02046FFF795FF3FE06FF01000BF
:100F2000086108202077C86910F4407F3AD0204635
:100F3000FFF788FF3CE000BF6FF00100086120462A
:100F400000F02EFA2168A5E76FF0800008612046C6
:100F5000FFF7C2FE2168A4E76FF040000861204659
:100F600000F0B4FA2168A3E7204600F025F82046F7
:100F700000F08AF92168002020776FE7204600F012
:100F80001BF8204600F080F92168002020776CE7EC
:100F9000204600F011F8204600F076F92168002084
:100FA000207769E7204600F007F8204600F06CF94A
:100FB00021680020207766E7704700002DE9F041A6
:100FC00090F83C30012B04BF0220BDE8F0814FEACD
:100FD000B202032A00F2FC80DFE802F0023E7EBE8D
:100FE000036840F200471A6A43F4806522F0010268
:100FF0001A621C6A1A46D3F804E052F818CF8E68B9
:1010000024F00204C4F20107BD4244EA060405D1FB
:10101000CE6824F00C0426F0040634430E68BD426A
:1010200007D1D1E905572EF4407E45EA0E0545EA81
:10103000070E2CF073073743C3F804E09F614F6835
:1010400009695F631C629F6947F008079F619F6998
:1010500027F004079F61B1E0036840F200481A6A74
:1010600043F4806522F010021A621C6A1A46D3F813
:1010700004E052F818CF8F6824F02004C4F201086D
:10108000454544EA071407D1CF686FF0400624F0C5
:10109000C00406EA071634430F68454507D1D1E975
:1010A00005562EF4406E4EEA850545EA860E2CF470
:1010B000E64646EA0727C3F804E09F614F680969DE
:1010C0009F631C629F6947F400679F619F6927F4D3
:1010D00080679F6171E000BF036840F200481A6AB0
:1010E00043F4806522F480721A621C6A1A46D3F8AF
:1010F00004E052F81CCF8F6824F40074C4F2010895
:10110000454544EA072408D1CF6840F2FF463F0234
:1011100024F4406427EA060634430F68454507D1A6
:10112000D1E905562EF4405E4EEA051545EA061E45
:101130002CF073063743C3F804E0DF614F68096998
:10114000DF631C62DF6947F00807DF61DF6927F0B2
:101150000407DF6132E000BF036840F200451A6A0D
:1011600043F4806722F480521A621A46D3F820C0F2
:101170005C6852F81CEFD1F800808E68C4F201055B
:10118000AF4204D14D6924F4804444EA85142CF420
:10119000005747EA06372EF4E64646EA08265C6022
:1011A000DE614E6809691E641F62DF6947F40067EB
:1011B000DF61DF6927F48067DF6109021368194383
:1011C00011600021002280F83C200846BDE8F08133
:1011D0000121002280F83C200846BDE8F081000093
:1011E000002804BF0120704710B5044690F83D0068
:1011F00028B9002084F83C00204600F01FF80220A7
:1012000084F83D002068211D00F0ACFF012084F827
:10121000460084F83E0084F83F0084F8400084F8DB
:10122000410084F8420084F8430084F8440084F8C4
:10123000450084F83D00002010BD000080B582B05C
:10124000006840F60001C4F2000188421CBF02B0F1
:1012500080BD0020019043F64000C4F20200016806
:10126000002241F0040101600068002100F0040048
:10127000019001981E20FFF713FA1E2002B0BDE86E
:101280008040FFF7FDB900007047000041B1082918
:1012900010D0042914BF00F1410200F13F020BE01D
:1012A00090F83E20012A1CBF01207047022280F8DE
:1012B0003E2013E000F140021278012A1CBF0120F9
:1012C00070470222082907D0042914BF80F8412062
:1012D00080F83F2002E000BF80F84020006801F065
:1012E0001F010122036A02FA01F123EA01020262EC
:1012F000026A114341F2FF72C4F20002904201629D
:101300000CDC40F2FF71C4F20001884214DCB0F141
:10131000804F37D040F2004116E000BF40F2FF316D
:10132000C4F20101884215DC41F60001C4F200015B
:10133000884227D0002115E040F60001C4F20001E8
:1013400088421FD040F60041C4F20001884219D003
:101350001FE000BF44F20001C4F20101884211D035
:1013600040F20041C4F20101884212D1416C40F2C6
:10137000004340F48062C4F2010341F400419A4208
:10138000416406D1816801F00701062904BF0020ED
:101390007047016841F001010160002070470000C2
:1013A000B0B5056840F27C00C2F2000000688542DA
:1013B00018BFB0BD40F20814C2F2000425A12046B7
:1013C0000622FEF740FFD8B140F20814C2F2000432
:1013D00022A120460722FEF736FFD8B1206846F248
:1013E0007251C0F2640188421ED1A07A00EB8000E5
:1013F0004000E86323A0BDE8B04001F031B900BF70
:10140000A07A00EB8000400068632AA0BDE8B040ED
:1014100001F026B9A07A00EB80004000A8631FA06D
:10142000BDE8B04001F01CB940F20814C2F200045B
:101430000CA120460522FEF706FF08B1B0BD00BF93
:10144000A07A00EB80004000286408A0BDE8B0400E
:1014500001F006B9677265656E0000006F72616E1B
:1014600067650000626C7565000000000D0A3E3E75
:10147000205365742054494D5F4348414E4E454CBE
:101480005F3400000D0A3E3E205365742054494DE0
:101490005F4348414E4E454C5F3300000D0A3E3ECF
:1014A000205365742054494D5F4348414E4E454C8E
:1014B0005F3200000D0A3E3E205365742054494DB2
:1014C0005F4348414E4E454C5F310000704700007D
:1014D0007047000070470000B0B582B00446006855
:1014E0000168C368426901F02F05202D03F0200533
:1014F00006D12DB1204602B0BDE8B04000F0D6BE06
:101500005FEA017C1EBF02F0010E03F4907212EB41
:101510000E0255D1226B012A05D111F0100218BF1D
:1015200013F0100236D10A0622D513F080021FD024
:1015300094F83D10212941D1A168B1F5805F03D114
:101540002169002900F06C82216A4A1C2262097814
:101550004160E18C01390A04E1842FD1C16821F096
:101560008001C160C16841F04001C16002B0B0BDFE
:10157000490623D513F0400120D0C16821F0400175
:10158000C1602021204684F83D1002B0BDE8B04083
:1015900000F000BD002101910168019141680191B5
:1015A00001994169490600F18B80A18DE28DE38D9F
:1015B000002B1CBF891A5FEA01420CD102B0B0BDFA
:1015C000CA0718BF13F4807240F032814A0700F155
:1015D00035813AE1206850E8030F226820F49070CA
:1015E00042E80303DBB1206850E8030F226820F4CF
:1015F000907042E8030393B1206850E8030F22681B
:1016000020F4907042E803034BB1206850E8030FC8
:10161000226820F4907042E80303002BDAD120689E
:1016200050E8050F226820F0010042E80503DBB115
:10163000206850E8050F226820F0010042E8050309
:1016400093B1206850E8050F226820F0010042E8BD
:1016500005034BB1206850E8050F226820F0010017
:1016600042E80503002BDAD1202084F83E00002058
:101670002063206850E8030F226820F0100042E841
:101680000303DBB1206850E8030F226820F010004C
:1016900042E8030393B1206850E8030F226820F06A
:1016A000100042E803034BB1206850E8030F2268A2
:1016B00020F0100042E80303002BDAD189B2B0E039
:1016C000A26B11684B689DB2002D3FF477AFA18DDE
:1016D0008D42BFF473AFE385D269B2F5807F00F02D
:1016E0009D8050E8030F216820F4807041E80302D8
:1016F000E2B1206850E8030F216820F4807041E8CF
:1017000003029AB1206850E8030F216820F480702A
:1017100041E8030252B1206850E8030F216820F429
:10172000807041E803020AB12068DAE7206850E8D7
:10173000050F216820F0010041E80502DAB12068B8
:1017400050E8050F216820F0010041E8050292B140
:10175000206850E8050F216820F0010041E80502EB
:101760004AB1206850E8050F216820F0010041E8E7
:101770000502002ADAD1206850E8050F216820F020
:10178000400041E80502DAB1206850E8050F216801
:1017900020F0400041E8050292B1206850E8050FB2
:1017A000216820F0400041E805024AB1206850E875
:1017B000050F216820F0400041E80502002ADAD137
:1017C000202084F83E0000202063206850E8030FAA
:1017D000216820F0100041E80302DAB1206850E8E7
:1017E000030F216820F0100041E8030292B1206845
:1017F00050E8030F216820F0100041E803024AB1CD
:10180000206850E8030F216820F0100041E803022F
:10181000002ADAD1A06BFEF775FDA18DE08D081AC4
:1018200081B2204602B0BDE8B040FFF751BE00BF14
:10183000226C42F0010222644A0706D5BEF1000F75
:1018400003D0226C42F0020222648A0706D5BEF160
:10185000000F03D0226C42F004022264BCF1000F9E
:1018600006D555EA0E0203D0226C42F0080222642B
:10187000226C002A3FF4A2AE11F0200118BF002D07
:1018800003D0204600F012FD20684169226C01F06F
:10189000400102F00802891800F0A28050E8030F0E
:1018A000216820F4907041E80302C2B3206850E838
:1018B000030F216820F4907041E803027AB3206896
:1018C00050E8030F216820F4907041E8030232B31E
:1018D000206850E8030F216820F4907041E803026B
:1018E000EAB12068DAE700BF206850E8050F2168F8
:1018F00020F0010041E80502DAB1206850E8050F48
:10190000216820F0010041E8050292B1206850E80A
:10191000050F216820F0010041E805024AB1206866
:1019200050E8050F216820F0010041E80502002A77
:10193000DAD1206B012824D1206850E8030F2168F8
:1019400020F0100041E80302DAB1206850E8030FEC
:10195000216820F0100041E8030292B1206850E8AD
:10196000030F216820F0100041E803024AB120680B
:1019700050E8030F216820F0100041E80302002A1C
:10198000DAD1202084F83E000020206320684169DD
:1019900049063FD550E8050F216820F0400041E896
:1019A00005022AB3206850E8050F216820F04000A6
:1019B00041E80502E2B1206850E8050F216820F0F7
:1019C000400041E805029AB1206850E8050F2168FF
:1019D00020F0400041E8050252B12068DAE700BF7C
:1019E0002046FFF777FD0020206402B0B0BD00BFA5
:1019F000A06B78B142F2A121C0F600010165FEF7AB
:101A0000CBFC00283FF4DAADA06B016D02B0BDE85D
:101A1000B0400847204602B0BDE8B040FFF75ABDCD
:101A2000216A31F8022B6FF35F224260216290E558
:101A3000002804BF0120704710B5044690F83D000F
:101A400028B9002084F83C00204600F021F824202A
:101A500084F83D002068C16821F40051C16020462F
:101A600000F0A4FC2068016921F490410161416902
:101A700021F02A014161C16841F40051C160002098
:101A80002021206484F83D1084F83E1010BD000031
:101A900080B586B0016844F20040C4F20000814283
:101AA00002D006B080BD00BF002143F63002019194
:101AB000C4F20202136900F5DE3043F4003313610F
:101AC000136903F400330193019B0191136843F000
:101AD00001031360126802F001020192019A0C22C4
:101AE00001920222CDE902210321049107210591EF
:101AF00001A9FEF777FC262000210022FEF7D0FD89
:101B00002620FEF7BDFD06B080BD000090F83E30F7
:101B1000202B0BD100294FF0010318BF002A01D15F
:101B20001846704790F83C30012B01D102207047D5
:101B300000230363816222218285C285036480F8C9
:101B40003E100269016880F83C301AB1C86840F460
:101B50008070C8604869002340F001004861C8688F
:101B600040F02000C860184670470000F0B583B010
:101B700040F21007C2F20007397800200D29ADF8B5
:101B800008000190009040F0A580694600220023E3
:101B90007860CDE90000ADF8080005E0D6B201326A
:101BA0008D550530642870D03C18257AA5F1410682
:101BB000392E03D8D6B28D5501320DE0A5F130068D
:101BC000092E07D803EB830305EB4303303B7B600F
:101BD00002E000BF002D58D0657AA5F141063A2EEB
:101BE00004D2D6B201328D550EE000BFA5F1300609
:101BF0000A2E07D203EB830305EB4303303B7B60E4
:101C000002E000BF002D40D0A57AA5F141063A2E92
:101C100004D2D6B201328D550DE000BFA5F13006D9
:101C20000A2E07D203EB830305EB4303303B7B60B3
:101C300001E000BF4DB3E57AA5F141063A2E03D28B
:101C4000D6B201328D550CE0A5F130060A2E07D22E
:101C500003EB830305EB4303303B7B6001E000BFF4
:101C60009DB1257BA5F141063A2EFFF497AFA5F172
:101C700030060A2E06D203EB830305EB4303303B09
:101C80007B608EE7002D7FF48CAF40F21414C2F21B
:101C9000000419A16A46204600F0F2FC82B240F22C
:101CA000C400C2F2000021464FF47A7300F032F80B
:101CB000BDF808207B680098019963F3174200F093
:101CC00065FC0020787007F108006421FEF7B0FA87
:101CD00005E000BF78783A1801301172787040F250
:101CE000C40040F21001C2F20000C2F20001012261
:101CF000FFF70CFF03B0F0BD0D0A3E3E20536574A4
:101D000020636F6C6F72202573203D20256920258C
:101D1000250D0A002DE9F04381B0044690F83D00FE
:101D200020280DD10F4600294FF0010000F0DD8082
:101D30001646002A00F0D98094F83C00012803D10F
:101D4000022001B0BDE8F083012084F83C004FF090
:101D5000000921201D46C4F8409084F83D00FEF79C
:101D60001FFCA684E684A1680646B1F5805F07D112
:101D7000206900281CBF38464F46B846074601E098
:101D80004FF0000884F83C90E18C2068002900F0B6
:101D90008B8005F101090AE047B317F8011B416088
:101DA000E18C0139E184E18C002900F07D8001683B
:101DB0000906F1D4B9F1000F0AD0EDB1FEF7F0FB3E
:101DC000801BA84218D8206801680906F6D5E3E709
:101DD00001680906E0D4016809065CBF01685FEA92
:101DE0000161D9D401680906F2D5D5E738F8021B9C
:101DF00000276FF35F21D2E7206850E8030F2168C6
:101E000020F4D07041E80302BAB3206850E8030F11
:101E1000216820F4D07041E8030272B3206850E8D2
:101E2000030F216820F4D07041E803022AB3206830
:101E300050E8030F216820F4D07041E80302002A23
:101E4000DAD11AE0206850E8050F216820F001007F
:101E500041E80502DAB1206850E8050F216820F05A
:101E6000010041E8050292B1206850E8050F2168A1
:101E700020F0010041E805024AB1206850E8050F52
:101E8000216820F0010041E80502002ADAD1202073
:101E900084F83D0084F83E00002084F83C000320D4
:101EA00001B0BDE8F08300BF0168490619D4FDB157
:101EB000691C0DD10168490613D4016849065CBF4D
:101EC00001685FEA41610CD401684906F2D508E077
:101ED000FEF766FB801BA8420AD82068006840060F
:101EE000F6D5202084F83D00002001B0BDE8F08345
:101EF000206850E8030F216820F4D07041E8030205
:101F0000E2B3206850E8030F216820F4D07041E864
:101F100003029AB3206850E8030F216820F4D070C0
:101F200041E8030252B3206850E8030F216820F40F
:101F3000D07041E80302002ADAD11FE0206850E89F
:101F4000050F216820F0010041E80502002A9ED01B
:101F5000206850E8050F216820F0010041E80502E3
:101F6000002A3FF494AF206850E8050F216820F064
:101F7000010041E80502002A3FF489AF206850E8DB
:101F8000050F216820F0010041E80502002AD5D1A3
:101F90007DE7000070470000FEE7000083B00020EE
:101FA00043F630010290C4F202010A6842F0800256
:101FB0000A600A6802F080020292029A01900A689E
:101FC00042F001020A600A6802F001020192019ADD
:101FD0000090086840F008000860086800F00800F9
:101FE0000090009803B07047B0B590B040F600057F
:101FF00040F27C00C4F200050021C2F20000102271
:102000004FF47A73CDE90811CDE90611CDE9041139
:10201000C0E90052C0E9021301618161FFF7E0F8F5
:10202000002818BFFEF768F940F27C00C2F20000F9
:1020300008A9FEF755FE002818BFFEF75DF96020DD
:1020400001900020CDE90200059040F27C00C2F230
:10205000000001A90022FEF7B1FF002818BFFEF71B
:102060004BF940F27C00C2F2000001A90422FEF705
:10207000A5FF002818BFFEF73FF940F27C00C2F22E
:10208000000001A90822FEF799FF002818BFFEF7FB
:1020900033F940F27C04C2F2000401A920460C226C
:1020A000FEF78CFF002818BFFEF726F92068A8422B
:1020B00002D010B0B0BD00BF002043F630010B903D
:1020C000C4F202010A6842F008020A60096801F0DD
:1020D00008010B910B994FF470410B910221CDE94E
:1020E0000C10CDE90E0105F501300BA9FEF77AF9C8
:1020F00010B0B0BD80B540F2C40044F20041C2F25D
:102100000000C4F2000100234FF00C0C4FF4E13248
:1021100080E80E00C0E90333C0E905C3C361FFF7DF
:1021200087FC002808BF80BDBDE88040FEF7E4B80A
:10213000FEE70000FEE70000704700007047000067
:10214000FEF734BA4EF68850CEF20000016841F432
:10215000700101607047000040F27C00C2F2000094
:10216000FEF772BE10B540F6FF3E0368C4F2000EE3
:1021700040F2004C7045C4F2010C27DCB0F1804FF6
:1021800031D040F20042C4F2000290422BD040F61F
:102190000002C4F20002904225D041F6FF72C4F260
:1021A0000002904229DC70453CDCB0F1804F5FD0EA
:1021B00040F20042C4F20002904259D040F60002C0
:1021C000C4F20002904253D056E000BF40F60042F5
:1021D000C4F20002904206D0604504D00022C4F24E
:1021E00001029042D9D14A6823F07003134341F6AB
:1021F000FF72C4F200029042D5DD43F6FF72C4F2D2
:102200000102904222DC42F20002C4F2000290423B
:102210002ED00022C4F20102904229D0604527D07E
:102220002AE000BF40F60042C4F2000290421FD0F4
:1022300041F60002C4F20002904219D041F6004279
:10224000C4F20002904213D016E000BF44F2000234
:10225000C4F2010290420BD044F60002C4F2010223
:10226000904205D044F20042C4F20102904203D1F0
:10227000CA6823F44073134323F080024B69D1F8FA
:1022800000E08C681A430260C46240F48062C0F8C7
:1022900028E0624504BF096901630121416110BD65
:1022A000806B0021C185C184FFF714B981B090F81B
:1022B0003E10222920D18368B3F5805F08D10169DF
:1022C000002965D000F128010A6803685B680AE00C
:1022D000014651F8282F13B90369002BF5D0036884
:1022E0005B6803F07F0313700A6801320A60C18DD6
:1022F00001390A04C18501D001B070470168CA687C
:1023000022F02002CA60CA6822F48072CA604A6958
:1023100022F001024A61202280F83E20026B012A4D
:1023200040D10022026300BF51E8031F026821F080
:10233000100142E803130168DBB151E8031F026892
:1023400021F0100142E80313016893B151E8031F23
:10235000026821F0100142E8031301684BB151E813
:10236000031F026821F0100142E803130168002BEB
:10237000DAD10A68D20606D5002200920A680092D5
:10238000496800910099818D01B0FFF7A1B800BFA5
:102390000168826A49686FF35F2122F8021B82623A
:1023A000A5E700BF01B0FFF7E1BB000010B5044690
:1023B0000068D4E902C22369016921F44051114344
:1023C0000161626943EA0C01E3691143C268194380
:1023D00049F20C639A431143C1604169A26921F437
:1023E000407141F20043114340F48062C4F20103A2
:1023F0009A42416102D1FEF753FA01E0FEF73CFA3E
:10240000E16963681922B1F5004FA0FB02011FD1F9
:102410005A00DB0FFDF7D4FE48F21F51C5F2EB1155
:10242000A0FB01235A096FF0630302FB0300322370
:1024300003EBC000A0FB01014FF4F87000EA11109B
:1024400000EB0210C1F3421108442168886010BDFE
:102450009A009B0FFDF7B4FE48F21F51C5F2EB1135
:10246000A0FB01235A096FF0630302FB0300322330
:1024700003EB0010A0FB0101F02000EA511000EB7B
:102480000210C1F3431108442168886010BD0000A8
:1024900040F2C400C2F20000FFF71EB8FEE70000E1
:1024A0002DE9F04140F214141D481DA1C2F20004B0
:1024B0000D1D2CCD84E80D00087C40F2C408C2F24A
:1024C000000820744046214610224FF47A73E560DC
:1024D000FFF720FC17A101F10C0ED1E901239EE8C2
:1024E000E140DFF850C0C4E9023004F11000E0C060
:1024F000088CC4E900C220844046214621224FF4C2
:102500007A73C4F81CE0FFF705FC40F21001C2F238
:10251000000140460122BDE8F041FFF7F7BA00BFD5
:102520002A2A2A2A2A2A2A2A2A2A2A2A2A2A0D0A48
:10253000000000003E3E2053657420636F6C6F7294
:10254000206C656420616E6420706F776572207006
:1025500063742E2E2E00000010B540F27C04C2F2EF
:1025600000042046FEF718FC20460021FEF78EFEF0
:1025700020460421FEF78AFE20460821FEF786FE4B
:1025800020460C21BDE81040FEF780BE40F2081343
:102590004FEA124CC2F2000383F80AC0C3E90001FB
:1025A0001A81704792B0FEF70FF806AC201D2C215F
:1025B000FDF73EFE002543F640000595CDE90355A5
:1025C000CDE901550095C4F20200016841F0805147
:1025D0000160006800F080500090009847F2000011
:1025E0000095C4F20000016841F480410160006878
:1025F00000F480400090009802200690012009908D
:1026000010200A9020460C95FEF794F920B1EFF3C4
:10261000108072B6FEE700BF0F20CDE901054FF430
:10262000A05004904FF48050059001A8002103951C
:10263000FEF772F820B1EFF3108072B6FEE700BF2C
:10264000FFF7ACFCFFF756FDFFF7CEFCFFF784FF6A
:10265000FFF726FF4FF47A70FDF7B0FEFAE70000AF
:102660000FB4054B10B503A9044A029800F02CF8EA
:1026700010BC5DF814FB0000152A000800000020C3
:102680000FB4084B10B504A902AA039800F01CF877
:10269000044602A9002000F0B8F9204610BC5DF8FD
:1026A00014FB00000B2A000802E008C8121F08C132
:1026B000002AFAD170477047002001E001C1121FC3
:1026C000002AFBD1704700002DE9FF4F8BB08846F0
:1026D0000546002606E025280BD0DDE90D129047BF
:1026E0006D1C761C28780028F5D10FB03046BDE867
:1026F000F08F0024A146A2460122AE4900E0044327
:1027000015F8013F203B02FA03F00842F7D1287880
:102710002A2810D06FF02F022878A0F13001092963
:1027200015D809EB890102EB410144F0020400EBEA
:1027300001096D1CF0E758F8041B5FEA010903D595
:1027400044F40054C9F1000944F002046D1C2878D7
:102750002E2817D115F8010F44F004042A280ED0B2
:102760006FF02F022878A0F1300109290AD80AEB6E
:102770008A0102EB410100EB010A6D1CF2E758F8F7
:1027800004AB6D1C28786C280FD006DC4C2817D0C1
:1027900068280DD06A2814D104E0742810D07A2853
:1027A0000FD10DE044F400140AE044F4801401E079
:1027B00044F440146978814202D104F580146D1C00
:1027C0006D1C2878692865D006DC00288DD0632828
:1027D00027D0642806D15DE06E2808D073282AD05F
:1027E000752877D0DDE90D129047761CE0E0C4F340
:1027F0000250022809D003280DD0D8F80010042870
:102800000DD00E6008F10408D2E0D8F80010F217DD
:10281000C1E90062F6E7D8F800100E80F2E70E700A
:10282000F0E718F8041B8DF8001000208DF8010067
:10283000EB46012003E058F804BB4FF0FF3061077E
:102840004FF0000701D40AE07F1C57450DDA87429C
:10285000FADB1BF807100029F6D106E07F1C87423F
:10286000FCDB1BF807100029F8D1DDE90D23A9EBEB
:1028700007008146214600F0B1F83044C61904E053
:10288000DDE90D121BF8010B90477F1EF8D221469F
:10289000484688E058F8040BC4F302514FF00A0B85
:1028A000032900D100B2042900D140B2002802DA85
:1028B00040422D2102E0210505D52B218DF8241061
:1028C000012104E006E0E10710D02021F6E708AF7F
:1028D000089113E058F8040BC4F302514FF00A0BAF
:1028E000032900D180B2042900D1C0B20021EEE753
:1028F0005946FDF7B5FC303107F8011D0028F7D126
:10290000ADEB070000F1200B600702D524F4803402
:1029100001E04FF0010ADA4502DDAAEB0B0000E00E
:102920000020824600EB0B0108980144A9EB01004E
:102930000A90E00306D4DDE90D2321460A9800F051
:102940004DF806444FF0000908E009A911F8090004
:10295000DDE90D12904709F10109761C08998945B6
:10296000F3DBE0030CD5DDE90D2321460A9800F0E6
:1029700035F8064404E0DDE90D1230209047761C5E
:10298000BAF10001AAF1010AF5DC05E0DDE90D125A
:1029900017F8010B9047761CBBF10001ABF1010B5E
:1029A000F4DC0A982146DDE90D2300F005F8064421
:1029B0006D1C97E6092801002DE9F0410446002529
:1029C0001E461746880404D405E039462020B04747
:1029D0006D1C641EF9D52846BDE8F0812DE9F04153
:1029E000044600251E469046C80301D5302700E066
:1029F0002027880404D505E041463846B0476D1CC1
:102A0000641EF9D52846BDE8F0810A68531C0B60A6
:102A10001070704738B504468DF8000069460320F1
:102A2000ABBE204638BD00000000000000000102DF
:102A30000304060708090000000001020304000067
:102A4000602A00080000002010000000A8260008EE
:102A5000702A00081000002088050000B826000831
:102A60000000000001000000100000000024F4003D
:040000050800018965
:00000001FF
